{
	"contracts/artifacts/Tesla.sol": {
		"Tesla": {
			"abi": [
				{
					"inputs": [
						{
							"internalType": "string",
							"name": "name",
							"type": "string"
						},
						{
							"internalType": "uint256",
							"name": "year",
							"type": "uint256"
						},
						{
							"internalType": "string",
							"name": "color",
							"type": "string"
						}
					],
					"name": "addTesla",
					"outputs": [],
					"stateMutability": "nonpayable",
					"type": "function"
				},
				{
					"inputs": [
						{
							"internalType": "uint256",
							"name": "",
							"type": "uint256"
						}
					],
					"name": "teslas",
					"outputs": [
						{
							"internalType": "string",
							"name": "name",
							"type": "string"
						},
						{
							"internalType": "uint256",
							"name": "year",
							"type": "uint256"
						},
						{
							"internalType": "string",
							"name": "color",
							"type": "string"
						}
					],
					"stateMutability": "view",
					"type": "function"
				}
			],
			"devdoc": {
				"kind": "dev",
				"methods": {},
				"version": 1
			},
			"evm": {
				"assembly": "    /* \"contracts/artifacts/Tesla.sol\":61:514  contract Tesla {... */\n  mstore(0x40, 0x80)\n  callvalue\n  dup1\n  iszero\n  tag_1\n  jumpi\n  revert(0x00, 0x00)\ntag_1:\n  pop\n  dataSize(sub_0)\n  dup1\n  dataOffset(sub_0)\n  0x00\n  codecopy\n  0x00\n  return\nstop\n\nsub_0: assembly {\n        /* \"contracts/artifacts/Tesla.sol\":61:514  contract Tesla {... */\n      mstore(0x40, 0x80)\n      callvalue\n      dup1\n      iszero\n      tag_1\n      jumpi\n      revert(0x00, 0x00)\n    tag_1:\n      pop\n      jumpi(tag_2, lt(calldatasize, 0x04))\n      shr(0xe0, calldataload(0x00))\n      dup1\n      0x9c874fda\n      eq\n      tag_3\n      jumpi\n      dup1\n      0xe8a126eb\n      eq\n      tag_4\n      jumpi\n    tag_2:\n      revert(0x00, 0x00)\n        /* \"contracts/artifacts/Tesla.sol\":205:226  Tesla[] public teslas */\n    tag_3:\n      tag_5\n      0x04\n      dup1\n      calldatasize\n      sub\n      dup2\n      add\n      swap1\n      tag_6\n      swap2\n      swap1\n      tag_7\n      jump\t// in\n    tag_6:\n      tag_8\n      jump\t// in\n    tag_5:\n      mload(0x40)\n      tag_9\n      swap4\n      swap3\n      swap2\n      swap1\n      tag_10\n      jump\t// in\n    tag_9:\n      mload(0x40)\n      dup1\n      swap2\n      sub\n      swap1\n      return\n        /* \"contracts/artifacts/Tesla.sol\":235:511  function addTesla(string memory name, uint256 year, string memory color) public {... */\n    tag_4:\n      tag_11\n      0x04\n      dup1\n      calldatasize\n      sub\n      dup2\n      add\n      swap1\n      tag_12\n      swap2\n      swap1\n      tag_13\n      jump\t// in\n    tag_12:\n      tag_14\n      jump\t// in\n    tag_11:\n      stop\n        /* \"contracts/artifacts/Tesla.sol\":205:226  Tesla[] public teslas */\n    tag_8:\n      0x00\n      dup2\n      dup2\n      sload\n      dup2\n      lt\n      tag_15\n      jumpi\n      0x00\n      dup1\n      revert\n    tag_15:\n      swap1\n      0x00\n      mstore\n      keccak256(0x00, 0x20)\n      swap1\n      0x03\n      mul\n      add\n      0x00\n      swap2\n      pop\n      swap1\n      pop\n      dup1\n      0x00\n      add\n      dup1\n      sload\n      tag_17\n      swap1\n      tag_18\n      jump\t// in\n    tag_17:\n      dup1\n      0x1f\n      add\n      0x20\n      dup1\n      swap2\n      div\n      mul\n      0x20\n      add\n      mload(0x40)\n      swap1\n      dup2\n      add\n      0x40\n      mstore\n      dup1\n      swap3\n      swap2\n      swap1\n      dup2\n      dup2\n      mstore\n      0x20\n      add\n      dup3\n      dup1\n      sload\n      tag_19\n      swap1\n      tag_18\n      jump\t// in\n    tag_19:\n      dup1\n      iszero\n      tag_20\n      jumpi\n      dup1\n      0x1f\n      lt\n      tag_21\n      jumpi\n      0x0100\n      dup1\n      dup4\n      sload\n      div\n      mul\n      dup4\n      mstore\n      swap2\n      0x20\n      add\n      swap2\n      jump(tag_20)\n    tag_21:\n      dup3\n      add\n      swap2\n      swap1\n      0x00\n      mstore\n      keccak256(0x00, 0x20)\n      swap1\n    tag_22:\n      dup2\n      sload\n      dup2\n      mstore\n      swap1\n      0x01\n      add\n      swap1\n      0x20\n      add\n      dup1\n      dup4\n      gt\n      tag_22\n      jumpi\n      dup3\n      swap1\n      sub\n      0x1f\n      and\n      dup3\n      add\n      swap2\n    tag_20:\n      pop\n      pop\n      pop\n      pop\n      pop\n      swap1\n      dup1\n      0x01\n      add\n      sload\n      swap1\n      dup1\n      0x02\n      add\n      dup1\n      sload\n      tag_23\n      swap1\n      tag_18\n      jump\t// in\n    tag_23:\n      dup1\n      0x1f\n      add\n      0x20\n      dup1\n      swap2\n      div\n      mul\n      0x20\n      add\n      mload(0x40)\n      swap1\n      dup2\n      add\n      0x40\n      mstore\n      dup1\n      swap3\n      swap2\n      swap1\n      dup2\n      dup2\n      mstore\n      0x20\n      add\n      dup3\n      dup1\n      sload\n      tag_24\n      swap1\n      tag_18\n      jump\t// in\n    tag_24:\n      dup1\n      iszero\n      tag_25\n      jumpi\n      dup1\n      0x1f\n      lt\n      tag_26\n      jumpi\n      0x0100\n      dup1\n      dup4\n      sload\n      div\n      mul\n      dup4\n      mstore\n      swap2\n      0x20\n      add\n      swap2\n      jump(tag_25)\n    tag_26:\n      dup3\n      add\n      swap2\n      swap1\n      0x00\n      mstore\n      keccak256(0x00, 0x20)\n      swap1\n    tag_27:\n      dup2\n      sload\n      dup2\n      mstore\n      swap1\n      0x01\n      add\n      swap1\n      0x20\n      add\n      dup1\n      dup4\n      gt\n      tag_27\n      jumpi\n      dup3\n      swap1\n      sub\n      0x1f\n      and\n      dup3\n      add\n      swap2\n    tag_25:\n      pop\n      pop\n      pop\n      pop\n      pop\n      swap1\n      pop\n      dup4\n      jump\t// out\n        /* \"contracts/artifacts/Tesla.sol\":235:511  function addTesla(string memory name, uint256 year, string memory color) public {... */\n    tag_14:\n        /* \"contracts/artifacts/Tesla.sol\":326:347  Tesla memory newTesla */\n      0x00\n        /* \"contracts/artifacts/Tesla.sol\":350:469  Tesla({ // Matching struct name... */\n      mload(0x40)\n      dup1\n      0x60\n      add\n      0x40\n      mstore\n      dup1\n        /* \"contracts/artifacts/Tesla.sol\":401:405  name */\n      dup6\n        /* \"contracts/artifacts/Tesla.sol\":350:469  Tesla({ // Matching struct name... */\n      dup2\n      mstore\n      0x20\n      add\n        /* \"contracts/artifacts/Tesla.sol\":426:430  year */\n      dup5\n        /* \"contracts/artifacts/Tesla.sol\":350:469  Tesla({ // Matching struct name... */\n      dup2\n      mstore\n      0x20\n      add\n        /* \"contracts/artifacts/Tesla.sol\":452:457  color */\n      dup4\n        /* \"contracts/artifacts/Tesla.sol\":350:469  Tesla({ // Matching struct name... */\n      dup2\n      mstore\n      pop\n        /* \"contracts/artifacts/Tesla.sol\":326:469  Tesla memory newTesla = Tesla({ // Matching struct name... */\n      swap1\n      pop\n        /* \"contracts/artifacts/Tesla.sol\":482:488  teslas */\n      0x00\n        /* \"contracts/artifacts/Tesla.sol\":494:502  newTesla */\n      dup2\n        /* \"contracts/artifacts/Tesla.sol\":482:503  teslas.push(newTesla) */\n      swap1\n      dup1\n      0x01\n      dup2\n      sload\n      add\n      dup1\n      dup3\n      sstore\n      dup1\n      swap2\n      pop\n      pop\n      0x01\n      swap1\n      sub\n      swap1\n      0x00\n      mstore\n      keccak256(0x00, 0x20)\n      swap1\n      0x03\n      mul\n      add\n      0x00\n      swap1\n      swap2\n      swap1\n      swap2\n      swap1\n      swap2\n      pop\n      0x00\n      dup3\n      add\n      mload\n      dup2\n      0x00\n      add\n      swap1\n      dup2\n      tag_30\n      swap2\n      swap1\n      tag_31\n      jump\t// in\n    tag_30:\n      pop\n      0x20\n      dup3\n      add\n      mload\n      dup2\n      0x01\n      add\n      sstore\n      0x40\n      dup3\n      add\n      mload\n      dup2\n      0x02\n      add\n      swap1\n      dup2\n      tag_32\n      swap2\n      swap1\n      tag_31\n      jump\t// in\n    tag_32:\n      pop\n      pop\n      pop\n        /* \"contracts/artifacts/Tesla.sol\":315:511  {... */\n      pop\n        /* \"contracts/artifacts/Tesla.sol\":235:511  function addTesla(string memory name, uint256 year, string memory color) public {... */\n      pop\n      pop\n      pop\n      jump\t// out\n        /* \"#utility.yul\":7:82   */\n    tag_33:\n        /* \"#utility.yul\":40:46   */\n      0x00\n        /* \"#utility.yul\":73:75   */\n      0x40\n        /* \"#utility.yul\":67:76   */\n      mload\n        /* \"#utility.yul\":57:76   */\n      swap1\n      pop\n        /* \"#utility.yul\":7:82   */\n      swap1\n      jump\t// out\n        /* \"#utility.yul\":88:205   */\n    tag_34:\n        /* \"#utility.yul\":197:198   */\n      0x00\n        /* \"#utility.yul\":194:195   */\n      0x00\n        /* \"#utility.yul\":187:199   */\n      revert\n        /* \"#utility.yul\":211:328   */\n    tag_35:\n        /* \"#utility.yul\":320:321   */\n      0x00\n        /* \"#utility.yul\":317:318   */\n      0x00\n        /* \"#utility.yul\":310:322   */\n      revert\n        /* \"#utility.yul\":334:411   */\n    tag_36:\n        /* \"#utility.yul\":371:378   */\n      0x00\n        /* \"#utility.yul\":400:405   */\n      dup2\n        /* \"#utility.yul\":389:405   */\n      swap1\n      pop\n        /* \"#utility.yul\":334:411   */\n      swap2\n      swap1\n      pop\n      jump\t// out\n        /* \"#utility.yul\":417:539   */\n    tag_37:\n        /* \"#utility.yul\":490:514   */\n      tag_76\n        /* \"#utility.yul\":508:513   */\n      dup2\n        /* \"#utility.yul\":490:514   */\n      tag_36\n      jump\t// in\n    tag_76:\n        /* \"#utility.yul\":483:488   */\n      dup2\n        /* \"#utility.yul\":480:515   */\n      eq\n        /* \"#utility.yul\":470:533   */\n      tag_77\n      jumpi\n        /* \"#utility.yul\":529:530   */\n      0x00\n        /* \"#utility.yul\":526:527   */\n      0x00\n        /* \"#utility.yul\":519:531   */\n      revert\n        /* \"#utility.yul\":470:533   */\n    tag_77:\n        /* \"#utility.yul\":417:539   */\n      pop\n      jump\t// out\n        /* \"#utility.yul\":545:684   */\n    tag_38:\n        /* \"#utility.yul\":591:596   */\n      0x00\n        /* \"#utility.yul\":629:635   */\n      dup2\n        /* \"#utility.yul\":616:636   */\n      calldataload\n        /* \"#utility.yul\":607:636   */\n      swap1\n      pop\n        /* \"#utility.yul\":645:678   */\n      tag_79\n        /* \"#utility.yul\":672:677   */\n      dup2\n        /* \"#utility.yul\":645:678   */\n      tag_37\n      jump\t// in\n    tag_79:\n        /* \"#utility.yul\":545:684   */\n      swap3\n      swap2\n      pop\n      pop\n      jump\t// out\n        /* \"#utility.yul\":690:1019   */\n    tag_7:\n        /* \"#utility.yul\":749:755   */\n      0x00\n        /* \"#utility.yul\":798:800   */\n      0x20\n        /* \"#utility.yul\":786:795   */\n      dup3\n        /* \"#utility.yul\":777:784   */\n      dup5\n        /* \"#utility.yul\":773:796   */\n      sub\n        /* \"#utility.yul\":769:801   */\n      slt\n        /* \"#utility.yul\":766:885   */\n      iszero\n      tag_81\n      jumpi\n        /* \"#utility.yul\":804:883   */\n      tag_82\n      tag_34\n      jump\t// in\n    tag_82:\n        /* \"#utility.yul\":766:885   */\n    tag_81:\n        /* \"#utility.yul\":924:925   */\n      0x00\n        /* \"#utility.yul\":949:1002   */\n      tag_83\n        /* \"#utility.yul\":994:1001   */\n      dup5\n        /* \"#utility.yul\":985:991   */\n      dup3\n        /* \"#utility.yul\":974:983   */\n      dup6\n        /* \"#utility.yul\":970:992   */\n      add\n        /* \"#utility.yul\":949:1002   */\n      tag_38\n      jump\t// in\n    tag_83:\n        /* \"#utility.yul\":939:1002   */\n      swap2\n      pop\n        /* \"#utility.yul\":895:1012   */\n      pop\n        /* \"#utility.yul\":690:1019   */\n      swap3\n      swap2\n      pop\n      pop\n      jump\t// out\n        /* \"#utility.yul\":1025:1124   */\n    tag_39:\n        /* \"#utility.yul\":1077:1083   */\n      0x00\n        /* \"#utility.yul\":1111:1116   */\n      dup2\n        /* \"#utility.yul\":1105:1117   */\n      mload\n        /* \"#utility.yul\":1095:1117   */\n      swap1\n      pop\n        /* \"#utility.yul\":1025:1124   */\n      swap2\n      swap1\n      pop\n      jump\t// out\n        /* \"#utility.yul\":1130:1299   */\n    tag_40:\n        /* \"#utility.yul\":1214:1225   */\n      0x00\n        /* \"#utility.yul\":1248:1254   */\n      dup3\n        /* \"#utility.yul\":1243:1246   */\n      dup3\n        /* \"#utility.yul\":1236:1255   */\n      mstore\n        /* \"#utility.yul\":1288:1292   */\n      0x20\n        /* \"#utility.yul\":1283:1286   */\n      dup3\n        /* \"#utility.yul\":1279:1293   */\n      add\n        /* \"#utility.yul\":1264:1293   */\n      swap1\n      pop\n        /* \"#utility.yul\":1130:1299   */\n      swap3\n      swap2\n      pop\n      pop\n      jump\t// out\n        /* \"#utility.yul\":1305:1444   */\n    tag_41:\n        /* \"#utility.yul\":1394:1400   */\n      dup3\n        /* \"#utility.yul\":1389:1392   */\n      dup2\n        /* \"#utility.yul\":1384:1387   */\n      dup4\n        /* \"#utility.yul\":1378:1401   */\n      mcopy\n        /* \"#utility.yul\":1435:1436   */\n      0x00\n        /* \"#utility.yul\":1426:1432   */\n      dup4\n        /* \"#utility.yul\":1421:1424   */\n      dup4\n        /* \"#utility.yul\":1417:1433   */\n      add\n        /* \"#utility.yul\":1410:1437   */\n      mstore\n        /* \"#utility.yul\":1305:1444   */\n      pop\n      pop\n      pop\n      jump\t// out\n        /* \"#utility.yul\":1450:1552   */\n    tag_42:\n        /* \"#utility.yul\":1491:1497   */\n      0x00\n        /* \"#utility.yul\":1542:1544   */\n      0x1f\n        /* \"#utility.yul\":1538:1545   */\n      not\n        /* \"#utility.yul\":1533:1535   */\n      0x1f\n        /* \"#utility.yul\":1526:1531   */\n      dup4\n        /* \"#utility.yul\":1522:1536   */\n      add\n        /* \"#utility.yul\":1518:1546   */\n      and\n        /* \"#utility.yul\":1508:1546   */\n      swap1\n      pop\n        /* \"#utility.yul\":1450:1552   */\n      swap2\n      swap1\n      pop\n      jump\t// out\n        /* \"#utility.yul\":1558:1935   */\n    tag_43:\n        /* \"#utility.yul\":1646:1649   */\n      0x00\n        /* \"#utility.yul\":1674:1713   */\n      tag_89\n        /* \"#utility.yul\":1707:1712   */\n      dup3\n        /* \"#utility.yul\":1674:1713   */\n      tag_39\n      jump\t// in\n    tag_89:\n        /* \"#utility.yul\":1729:1800   */\n      tag_90\n        /* \"#utility.yul\":1793:1799   */\n      dup2\n        /* \"#utility.yul\":1788:1791   */\n      dup6\n        /* \"#utility.yul\":1729:1800   */\n      tag_40\n      jump\t// in\n    tag_90:\n        /* \"#utility.yul\":1722:1800   */\n      swap4\n      pop\n        /* \"#utility.yul\":1809:1874   */\n      tag_91\n        /* \"#utility.yul\":1867:1873   */\n      dup2\n        /* \"#utility.yul\":1862:1865   */\n      dup6\n        /* \"#utility.yul\":1855:1859   */\n      0x20\n        /* \"#utility.yul\":1848:1853   */\n      dup7\n        /* \"#utility.yul\":1844:1860   */\n      add\n        /* \"#utility.yul\":1809:1874   */\n      tag_41\n      jump\t// in\n    tag_91:\n        /* \"#utility.yul\":1899:1928   */\n      tag_92\n        /* \"#utility.yul\":1921:1927   */\n      dup2\n        /* \"#utility.yul\":1899:1928   */\n      tag_42\n      jump\t// in\n    tag_92:\n        /* \"#utility.yul\":1894:1897   */\n      dup5\n        /* \"#utility.yul\":1890:1929   */\n      add\n        /* \"#utility.yul\":1883:1929   */\n      swap2\n      pop\n        /* \"#utility.yul\":1650:1935   */\n      pop\n        /* \"#utility.yul\":1558:1935   */\n      swap3\n      swap2\n      pop\n      pop\n      jump\t// out\n        /* \"#utility.yul\":1941:2059   */\n    tag_44:\n        /* \"#utility.yul\":2028:2052   */\n      tag_94\n        /* \"#utility.yul\":2046:2051   */\n      dup2\n        /* \"#utility.yul\":2028:2052   */\n      tag_36\n      jump\t// in\n    tag_94:\n        /* \"#utility.yul\":2023:2026   */\n      dup3\n        /* \"#utility.yul\":2016:2053   */\n      mstore\n        /* \"#utility.yul\":1941:2059   */\n      pop\n      pop\n      jump\t// out\n        /* \"#utility.yul\":2065:2689   */\n    tag_10:\n        /* \"#utility.yul\":2254:2258   */\n      0x00\n        /* \"#utility.yul\":2292:2294   */\n      0x60\n        /* \"#utility.yul\":2281:2290   */\n      dup3\n        /* \"#utility.yul\":2277:2295   */\n      add\n        /* \"#utility.yul\":2269:2295   */\n      swap1\n      pop\n        /* \"#utility.yul\":2341:2350   */\n      dup2\n        /* \"#utility.yul\":2335:2339   */\n      dup2\n        /* \"#utility.yul\":2331:2351   */\n      sub\n        /* \"#utility.yul\":2327:2328   */\n      0x00\n        /* \"#utility.yul\":2316:2325   */\n      dup4\n        /* \"#utility.yul\":2312:2329   */\n      add\n        /* \"#utility.yul\":2305:2352   */\n      mstore\n        /* \"#utility.yul\":2369:2447   */\n      tag_96\n        /* \"#utility.yul\":2442:2446   */\n      dup2\n        /* \"#utility.yul\":2433:2439   */\n      dup7\n        /* \"#utility.yul\":2369:2447   */\n      tag_43\n      jump\t// in\n    tag_96:\n        /* \"#utility.yul\":2361:2447   */\n      swap1\n      pop\n        /* \"#utility.yul\":2457:2529   */\n      tag_97\n        /* \"#utility.yul\":2525:2527   */\n      0x20\n        /* \"#utility.yul\":2514:2523   */\n      dup4\n        /* \"#utility.yul\":2510:2528   */\n      add\n        /* \"#utility.yul\":2501:2507   */\n      dup6\n        /* \"#utility.yul\":2457:2529   */\n      tag_44\n      jump\t// in\n    tag_97:\n        /* \"#utility.yul\":2576:2585   */\n      dup2\n        /* \"#utility.yul\":2570:2574   */\n      dup2\n        /* \"#utility.yul\":2566:2586   */\n      sub\n        /* \"#utility.yul\":2561:2563   */\n      0x40\n        /* \"#utility.yul\":2550:2559   */\n      dup4\n        /* \"#utility.yul\":2546:2564   */\n      add\n        /* \"#utility.yul\":2539:2587   */\n      mstore\n        /* \"#utility.yul\":2604:2682   */\n      tag_98\n        /* \"#utility.yul\":2677:2681   */\n      dup2\n        /* \"#utility.yul\":2668:2674   */\n      dup5\n        /* \"#utility.yul\":2604:2682   */\n      tag_43\n      jump\t// in\n    tag_98:\n        /* \"#utility.yul\":2596:2682   */\n      swap1\n      pop\n        /* \"#utility.yul\":2065:2689   */\n      swap5\n      swap4\n      pop\n      pop\n      pop\n      pop\n      jump\t// out\n        /* \"#utility.yul\":2695:2812   */\n    tag_45:\n        /* \"#utility.yul\":2804:2805   */\n      0x00\n        /* \"#utility.yul\":2801:2802   */\n      0x00\n        /* \"#utility.yul\":2794:2806   */\n      revert\n        /* \"#utility.yul\":2818:2935   */\n    tag_46:\n        /* \"#utility.yul\":2927:2928   */\n      0x00\n        /* \"#utility.yul\":2924:2925   */\n      0x00\n        /* \"#utility.yul\":2917:2929   */\n      revert\n        /* \"#utility.yul\":2941:3121   */\n    tag_47:\n        /* \"#utility.yul\":2989:3066   */\n      0x4e487b7100000000000000000000000000000000000000000000000000000000\n        /* \"#utility.yul\":2986:2987   */\n      0x00\n        /* \"#utility.yul\":2979:3067   */\n      mstore\n        /* \"#utility.yul\":3086:3090   */\n      0x41\n        /* \"#utility.yul\":3083:3084   */\n      0x04\n        /* \"#utility.yul\":3076:3091   */\n      mstore\n        /* \"#utility.yul\":3110:3114   */\n      0x24\n        /* \"#utility.yul\":3107:3108   */\n      0x00\n        /* \"#utility.yul\":3100:3115   */\n      revert\n        /* \"#utility.yul\":3127:3408   */\n    tag_48:\n        /* \"#utility.yul\":3210:3237   */\n      tag_103\n        /* \"#utility.yul\":3232:3236   */\n      dup3\n        /* \"#utility.yul\":3210:3237   */\n      tag_42\n      jump\t// in\n    tag_103:\n        /* \"#utility.yul\":3202:3208   */\n      dup2\n        /* \"#utility.yul\":3198:3238   */\n      add\n        /* \"#utility.yul\":3340:3346   */\n      dup2\n        /* \"#utility.yul\":3328:3338   */\n      dup2\n        /* \"#utility.yul\":3325:3347   */\n      lt\n        /* \"#utility.yul\":3304:3322   */\n      0xffffffffffffffff\n        /* \"#utility.yul\":3292:3302   */\n      dup3\n        /* \"#utility.yul\":3289:3323   */\n      gt\n        /* \"#utility.yul\":3286:3348   */\n      or\n        /* \"#utility.yul\":3283:3371   */\n      iszero\n      tag_104\n      jumpi\n        /* \"#utility.yul\":3351:3369   */\n      tag_105\n      tag_47\n      jump\t// in\n    tag_105:\n        /* \"#utility.yul\":3283:3371   */\n    tag_104:\n        /* \"#utility.yul\":3391:3401   */\n      dup1\n        /* \"#utility.yul\":3387:3389   */\n      0x40\n        /* \"#utility.yul\":3380:3402   */\n      mstore\n        /* \"#utility.yul\":3170:3408   */\n      pop\n        /* \"#utility.yul\":3127:3408   */\n      pop\n      pop\n      jump\t// out\n        /* \"#utility.yul\":3414:3543   */\n    tag_49:\n        /* \"#utility.yul\":3448:3454   */\n      0x00\n        /* \"#utility.yul\":3475:3495   */\n      tag_107\n      tag_33\n      jump\t// in\n    tag_107:\n        /* \"#utility.yul\":3465:3495   */\n      swap1\n      pop\n        /* \"#utility.yul\":3504:3537   */\n      tag_108\n        /* \"#utility.yul\":3532:3536   */\n      dup3\n        /* \"#utility.yul\":3524:3530   */\n      dup3\n        /* \"#utility.yul\":3504:3537   */\n      tag_48\n      jump\t// in\n    tag_108:\n        /* \"#utility.yul\":3414:3543   */\n      swap2\n      swap1\n      pop\n      jump\t// out\n        /* \"#utility.yul\":3549:3857   */\n    tag_50:\n        /* \"#utility.yul\":3611:3615   */\n      0x00\n        /* \"#utility.yul\":3701:3719   */\n      0xffffffffffffffff\n        /* \"#utility.yul\":3693:3699   */\n      dup3\n        /* \"#utility.yul\":3690:3720   */\n      gt\n        /* \"#utility.yul\":3687:3743   */\n      iszero\n      tag_110\n      jumpi\n        /* \"#utility.yul\":3723:3741   */\n      tag_111\n      tag_47\n      jump\t// in\n    tag_111:\n        /* \"#utility.yul\":3687:3743   */\n    tag_110:\n        /* \"#utility.yul\":3761:3790   */\n      tag_112\n        /* \"#utility.yul\":3783:3789   */\n      dup3\n        /* \"#utility.yul\":3761:3790   */\n      tag_42\n      jump\t// in\n    tag_112:\n        /* \"#utility.yul\":3753:3790   */\n      swap1\n      pop\n        /* \"#utility.yul\":3845:3849   */\n      0x20\n        /* \"#utility.yul\":3839:3843   */\n      dup2\n        /* \"#utility.yul\":3835:3850   */\n      add\n        /* \"#utility.yul\":3827:3850   */\n      swap1\n      pop\n        /* \"#utility.yul\":3549:3857   */\n      swap2\n      swap1\n      pop\n      jump\t// out\n        /* \"#utility.yul\":3863:4011   */\n    tag_51:\n        /* \"#utility.yul\":3961:3967   */\n      dup3\n        /* \"#utility.yul\":3956:3959   */\n      dup2\n        /* \"#utility.yul\":3951:3954   */\n      dup4\n        /* \"#utility.yul\":3938:3968   */\n      calldatacopy\n        /* \"#utility.yul\":4002:4003   */\n      0x00\n        /* \"#utility.yul\":3993:3999   */\n      dup4\n        /* \"#utility.yul\":3988:3991   */\n      dup4\n        /* \"#utility.yul\":3984:4000   */\n      add\n        /* \"#utility.yul\":3977:4004   */\n      mstore\n        /* \"#utility.yul\":3863:4011   */\n      pop\n      pop\n      pop\n      jump\t// out\n        /* \"#utility.yul\":4017:4442   */\n    tag_52:\n        /* \"#utility.yul\":4095:4100   */\n      0x00\n        /* \"#utility.yul\":4120:4186   */\n      tag_115\n        /* \"#utility.yul\":4136:4185   */\n      tag_116\n        /* \"#utility.yul\":4178:4184   */\n      dup5\n        /* \"#utility.yul\":4136:4185   */\n      tag_50\n      jump\t// in\n    tag_116:\n        /* \"#utility.yul\":4120:4186   */\n      tag_49\n      jump\t// in\n    tag_115:\n        /* \"#utility.yul\":4111:4186   */\n      swap1\n      pop\n        /* \"#utility.yul\":4209:4215   */\n      dup3\n        /* \"#utility.yul\":4202:4207   */\n      dup2\n        /* \"#utility.yul\":4195:4216   */\n      mstore\n        /* \"#utility.yul\":4247:4251   */\n      0x20\n        /* \"#utility.yul\":4240:4245   */\n      dup2\n        /* \"#utility.yul\":4236:4252   */\n      add\n        /* \"#utility.yul\":4285:4288   */\n      dup5\n        /* \"#utility.yul\":4276:4282   */\n      dup5\n        /* \"#utility.yul\":4271:4274   */\n      dup5\n        /* \"#utility.yul\":4267:4283   */\n      add\n        /* \"#utility.yul\":4264:4289   */\n      gt\n        /* \"#utility.yul\":4261:4373   */\n      iszero\n      tag_117\n      jumpi\n        /* \"#utility.yul\":4292:4371   */\n      tag_118\n      tag_46\n      jump\t// in\n    tag_118:\n        /* \"#utility.yul\":4261:4373   */\n    tag_117:\n        /* \"#utility.yul\":4382:4436   */\n      tag_119\n        /* \"#utility.yul\":4429:4435   */\n      dup5\n        /* \"#utility.yul\":4424:4427   */\n      dup3\n        /* \"#utility.yul\":4419:4422   */\n      dup6\n        /* \"#utility.yul\":4382:4436   */\n      tag_51\n      jump\t// in\n    tag_119:\n        /* \"#utility.yul\":4101:4442   */\n      pop\n        /* \"#utility.yul\":4017:4442   */\n      swap4\n      swap3\n      pop\n      pop\n      pop\n      jump\t// out\n        /* \"#utility.yul\":4462:4802   */\n    tag_53:\n        /* \"#utility.yul\":4518:4523   */\n      0x00\n        /* \"#utility.yul\":4567:4570   */\n      dup3\n        /* \"#utility.yul\":4560:4564   */\n      0x1f\n        /* \"#utility.yul\":4552:4558   */\n      dup4\n        /* \"#utility.yul\":4548:4565   */\n      add\n        /* \"#utility.yul\":4544:4571   */\n      slt\n        /* \"#utility.yul\":4534:4656   */\n      tag_121\n      jumpi\n        /* \"#utility.yul\":4575:4654   */\n      tag_122\n      tag_45\n      jump\t// in\n    tag_122:\n        /* \"#utility.yul\":4534:4656   */\n    tag_121:\n        /* \"#utility.yul\":4692:4698   */\n      dup2\n        /* \"#utility.yul\":4679:4699   */\n      calldataload\n        /* \"#utility.yul\":4717:4796   */\n      tag_123\n        /* \"#utility.yul\":4792:4795   */\n      dup5\n        /* \"#utility.yul\":4784:4790   */\n      dup3\n        /* \"#utility.yul\":4777:4781   */\n      0x20\n        /* \"#utility.yul\":4769:4775   */\n      dup7\n        /* \"#utility.yul\":4765:4782   */\n      add\n        /* \"#utility.yul\":4717:4796   */\n      tag_52\n      jump\t// in\n    tag_123:\n        /* \"#utility.yul\":4708:4796   */\n      swap2\n      pop\n        /* \"#utility.yul\":4524:4802   */\n      pop\n        /* \"#utility.yul\":4462:4802   */\n      swap3\n      swap2\n      pop\n      pop\n      jump\t// out\n        /* \"#utility.yul\":4808:5787   */\n    tag_13:\n        /* \"#utility.yul\":4905:4911   */\n      0x00\n        /* \"#utility.yul\":4913:4919   */\n      0x00\n        /* \"#utility.yul\":4921:4927   */\n      0x00\n        /* \"#utility.yul\":4970:4972   */\n      0x60\n        /* \"#utility.yul\":4958:4967   */\n      dup5\n        /* \"#utility.yul\":4949:4956   */\n      dup7\n        /* \"#utility.yul\":4945:4968   */\n      sub\n        /* \"#utility.yul\":4941:4973   */\n      slt\n        /* \"#utility.yul\":4938:5057   */\n      iszero\n      tag_125\n      jumpi\n        /* \"#utility.yul\":4976:5055   */\n      tag_126\n      tag_34\n      jump\t// in\n    tag_126:\n        /* \"#utility.yul\":4938:5057   */\n    tag_125:\n        /* \"#utility.yul\":5124:5125   */\n      0x00\n        /* \"#utility.yul\":5113:5122   */\n      dup5\n        /* \"#utility.yul\":5109:5126   */\n      add\n        /* \"#utility.yul\":5096:5127   */\n      calldataload\n        /* \"#utility.yul\":5154:5172   */\n      0xffffffffffffffff\n        /* \"#utility.yul\":5146:5152   */\n      dup2\n        /* \"#utility.yul\":5143:5173   */\n      gt\n        /* \"#utility.yul\":5140:5257   */\n      iszero\n      tag_127\n      jumpi\n        /* \"#utility.yul\":5176:5255   */\n      tag_128\n      tag_35\n      jump\t// in\n    tag_128:\n        /* \"#utility.yul\":5140:5257   */\n    tag_127:\n        /* \"#utility.yul\":5281:5344   */\n      tag_129\n        /* \"#utility.yul\":5336:5343   */\n      dup7\n        /* \"#utility.yul\":5327:5333   */\n      dup3\n        /* \"#utility.yul\":5316:5325   */\n      dup8\n        /* \"#utility.yul\":5312:5334   */\n      add\n        /* \"#utility.yul\":5281:5344   */\n      tag_53\n      jump\t// in\n    tag_129:\n        /* \"#utility.yul\":5271:5344   */\n      swap4\n      pop\n        /* \"#utility.yul\":5067:5354   */\n      pop\n        /* \"#utility.yul\":5393:5395   */\n      0x20\n        /* \"#utility.yul\":5419:5472   */\n      tag_130\n        /* \"#utility.yul\":5464:5471   */\n      dup7\n        /* \"#utility.yul\":5455:5461   */\n      dup3\n        /* \"#utility.yul\":5444:5453   */\n      dup8\n        /* \"#utility.yul\":5440:5462   */\n      add\n        /* \"#utility.yul\":5419:5472   */\n      tag_38\n      jump\t// in\n    tag_130:\n        /* \"#utility.yul\":5409:5472   */\n      swap3\n      pop\n        /* \"#utility.yul\":5364:5482   */\n      pop\n        /* \"#utility.yul\":5549:5551   */\n      0x40\n        /* \"#utility.yul\":5538:5547   */\n      dup5\n        /* \"#utility.yul\":5534:5552   */\n      add\n        /* \"#utility.yul\":5521:5553   */\n      calldataload\n        /* \"#utility.yul\":5580:5598   */\n      0xffffffffffffffff\n        /* \"#utility.yul\":5572:5578   */\n      dup2\n        /* \"#utility.yul\":5569:5599   */\n      gt\n        /* \"#utility.yul\":5566:5683   */\n      iszero\n      tag_131\n      jumpi\n        /* \"#utility.yul\":5602:5681   */\n      tag_132\n      tag_35\n      jump\t// in\n    tag_132:\n        /* \"#utility.yul\":5566:5683   */\n    tag_131:\n        /* \"#utility.yul\":5707:5770   */\n      tag_133\n        /* \"#utility.yul\":5762:5769   */\n      dup7\n        /* \"#utility.yul\":5753:5759   */\n      dup3\n        /* \"#utility.yul\":5742:5751   */\n      dup8\n        /* \"#utility.yul\":5738:5760   */\n      add\n        /* \"#utility.yul\":5707:5770   */\n      tag_53\n      jump\t// in\n    tag_133:\n        /* \"#utility.yul\":5697:5770   */\n      swap2\n      pop\n        /* \"#utility.yul\":5492:5780   */\n      pop\n        /* \"#utility.yul\":4808:5787   */\n      swap3\n      pop\n      swap3\n      pop\n      swap3\n      jump\t// out\n        /* \"#utility.yul\":5793:5973   */\n    tag_54:\n        /* \"#utility.yul\":5841:5918   */\n      0x4e487b7100000000000000000000000000000000000000000000000000000000\n        /* \"#utility.yul\":5838:5839   */\n      0x00\n        /* \"#utility.yul\":5831:5919   */\n      mstore\n        /* \"#utility.yul\":5938:5942   */\n      0x22\n        /* \"#utility.yul\":5935:5936   */\n      0x04\n        /* \"#utility.yul\":5928:5943   */\n      mstore\n        /* \"#utility.yul\":5962:5966   */\n      0x24\n        /* \"#utility.yul\":5959:5960   */\n      0x00\n        /* \"#utility.yul\":5952:5967   */\n      revert\n        /* \"#utility.yul\":5979:6299   */\n    tag_18:\n        /* \"#utility.yul\":6023:6029   */\n      0x00\n        /* \"#utility.yul\":6060:6061   */\n      0x02\n        /* \"#utility.yul\":6054:6058   */\n      dup3\n        /* \"#utility.yul\":6050:6062   */\n      div\n        /* \"#utility.yul\":6040:6062   */\n      swap1\n      pop\n        /* \"#utility.yul\":6107:6108   */\n      0x01\n        /* \"#utility.yul\":6101:6105   */\n      dup3\n        /* \"#utility.yul\":6097:6109   */\n      and\n        /* \"#utility.yul\":6128:6146   */\n      dup1\n        /* \"#utility.yul\":6118:6199   */\n      tag_136\n      jumpi\n        /* \"#utility.yul\":6184:6188   */\n      0x7f\n        /* \"#utility.yul\":6176:6182   */\n      dup3\n        /* \"#utility.yul\":6172:6189   */\n      and\n        /* \"#utility.yul\":6162:6189   */\n      swap2\n      pop\n        /* \"#utility.yul\":6118:6199   */\n    tag_136:\n        /* \"#utility.yul\":6246:6248   */\n      0x20\n        /* \"#utility.yul\":6238:6244   */\n      dup3\n        /* \"#utility.yul\":6235:6249   */\n      lt\n        /* \"#utility.yul\":6215:6233   */\n      dup2\n        /* \"#utility.yul\":6212:6250   */\n      sub\n        /* \"#utility.yul\":6209:6293   */\n      tag_137\n      jumpi\n        /* \"#utility.yul\":6265:6283   */\n      tag_138\n      tag_54\n      jump\t// in\n    tag_138:\n        /* \"#utility.yul\":6209:6293   */\n    tag_137:\n        /* \"#utility.yul\":6030:6299   */\n      pop\n        /* \"#utility.yul\":5979:6299   */\n      swap2\n      swap1\n      pop\n      jump\t// out\n        /* \"#utility.yul\":6305:6446   */\n    tag_55:\n        /* \"#utility.yul\":6354:6358   */\n      0x00\n        /* \"#utility.yul\":6377:6380   */\n      dup2\n        /* \"#utility.yul\":6369:6380   */\n      swap1\n      pop\n        /* \"#utility.yul\":6400:6403   */\n      dup2\n        /* \"#utility.yul\":6397:6398   */\n      0x00\n        /* \"#utility.yul\":6390:6404   */\n      mstore\n        /* \"#utility.yul\":6434:6438   */\n      0x20\n        /* \"#utility.yul\":6431:6432   */\n      0x00\n        /* \"#utility.yul\":6421:6439   */\n      keccak256\n        /* \"#utility.yul\":6413:6439   */\n      swap1\n      pop\n        /* \"#utility.yul\":6305:6446   */\n      swap2\n      swap1\n      pop\n      jump\t// out\n        /* \"#utility.yul\":6452:6545   */\n    tag_56:\n        /* \"#utility.yul\":6489:6495   */\n      0x00\n        /* \"#utility.yul\":6536:6538   */\n      0x20\n        /* \"#utility.yul\":6531:6533   */\n      0x1f\n        /* \"#utility.yul\":6524:6529   */\n      dup4\n        /* \"#utility.yul\":6520:6534   */\n      add\n        /* \"#utility.yul\":6516:6539   */\n      div\n        /* \"#utility.yul\":6506:6539   */\n      swap1\n      pop\n        /* \"#utility.yul\":6452:6545   */\n      swap2\n      swap1\n      pop\n      jump\t// out\n        /* \"#utility.yul\":6551:6658   */\n    tag_57:\n        /* \"#utility.yul\":6595:6603   */\n      0x00\n        /* \"#utility.yul\":6645:6650   */\n      dup3\n        /* \"#utility.yul\":6639:6643   */\n      dup3\n        /* \"#utility.yul\":6635:6651   */\n      shl\n        /* \"#utility.yul\":6614:6651   */\n      swap1\n      pop\n        /* \"#utility.yul\":6551:6658   */\n      swap3\n      swap2\n      pop\n      pop\n      jump\t// out\n        /* \"#utility.yul\":6664:7057   */\n    tag_58:\n        /* \"#utility.yul\":6733:6739   */\n      0x00\n        /* \"#utility.yul\":6783:6784   */\n      0x08\n        /* \"#utility.yul\":6771:6781   */\n      dup4\n        /* \"#utility.yul\":6767:6785   */\n      mul\n        /* \"#utility.yul\":6806:6903   */\n      tag_143\n        /* \"#utility.yul\":6836:6902   */\n      0xffffffffffffffffffffffffffffffffffffffffffffffffffffffffffffffff\n        /* \"#utility.yul\":6825:6834   */\n      dup3\n        /* \"#utility.yul\":6806:6903   */\n      tag_57\n      jump\t// in\n    tag_143:\n        /* \"#utility.yul\":6924:6963   */\n      tag_144\n        /* \"#utility.yul\":6954:6962   */\n      dup7\n        /* \"#utility.yul\":6943:6952   */\n      dup4\n        /* \"#utility.yul\":6924:6963   */\n      tag_57\n      jump\t// in\n    tag_144:\n        /* \"#utility.yul\":6912:6963   */\n      swap6\n      pop\n        /* \"#utility.yul\":6996:7000   */\n      dup1\n        /* \"#utility.yul\":6992:7001   */\n      not\n        /* \"#utility.yul\":6985:6990   */\n      dup5\n        /* \"#utility.yul\":6981:7002   */\n      and\n        /* \"#utility.yul\":6972:7002   */\n      swap4\n      pop\n        /* \"#utility.yul\":7045:7049   */\n      dup1\n        /* \"#utility.yul\":7035:7043   */\n      dup7\n        /* \"#utility.yul\":7031:7050   */\n      and\n        /* \"#utility.yul\":7024:7029   */\n      dup5\n        /* \"#utility.yul\":7021:7051   */\n      or\n        /* \"#utility.yul\":7011:7051   */\n      swap3\n      pop\n        /* \"#utility.yul\":6740:7057   */\n      pop\n      pop\n        /* \"#utility.yul\":6664:7057   */\n      swap4\n      swap3\n      pop\n      pop\n      pop\n      jump\t// out\n        /* \"#utility.yul\":7063:7123   */\n    tag_59:\n        /* \"#utility.yul\":7091:7094   */\n      0x00\n        /* \"#utility.yul\":7112:7117   */\n      dup2\n        /* \"#utility.yul\":7105:7117   */\n      swap1\n      pop\n        /* \"#utility.yul\":7063:7123   */\n      swap2\n      swap1\n      pop\n      jump\t// out\n        /* \"#utility.yul\":7129:7271   */\n    tag_60:\n        /* \"#utility.yul\":7179:7188   */\n      0x00\n        /* \"#utility.yul\":7212:7265   */\n      tag_147\n        /* \"#utility.yul\":7230:7264   */\n      tag_148\n        /* \"#utility.yul\":7239:7263   */\n      tag_149\n        /* \"#utility.yul\":7257:7262   */\n      dup5\n        /* \"#utility.yul\":7239:7263   */\n      tag_36\n      jump\t// in\n    tag_149:\n        /* \"#utility.yul\":7230:7264   */\n      tag_59\n      jump\t// in\n    tag_148:\n        /* \"#utility.yul\":7212:7265   */\n      tag_36\n      jump\t// in\n    tag_147:\n        /* \"#utility.yul\":7199:7265   */\n      swap1\n      pop\n        /* \"#utility.yul\":7129:7271   */\n      swap2\n      swap1\n      pop\n      jump\t// out\n        /* \"#utility.yul\":7277:7352   */\n    tag_61:\n        /* \"#utility.yul\":7320:7323   */\n      0x00\n        /* \"#utility.yul\":7341:7346   */\n      dup2\n        /* \"#utility.yul\":7334:7346   */\n      swap1\n      pop\n        /* \"#utility.yul\":7277:7352   */\n      swap2\n      swap1\n      pop\n      jump\t// out\n        /* \"#utility.yul\":7358:7627   */\n    tag_62:\n        /* \"#utility.yul\":7468:7507   */\n      tag_152\n        /* \"#utility.yul\":7499:7506   */\n      dup4\n        /* \"#utility.yul\":7468:7507   */\n      tag_60\n      jump\t// in\n    tag_152:\n        /* \"#utility.yul\":7529:7620   */\n      tag_153\n        /* \"#utility.yul\":7578:7619   */\n      tag_154\n        /* \"#utility.yul\":7602:7618   */\n      dup3\n        /* \"#utility.yul\":7578:7619   */\n      tag_61\n      jump\t// in\n    tag_154:\n        /* \"#utility.yul\":7570:7576   */\n      dup5\n        /* \"#utility.yul\":7563:7567   */\n      dup5\n        /* \"#utility.yul\":7557:7568   */\n      sload\n        /* \"#utility.yul\":7529:7620   */\n      tag_58\n      jump\t// in\n    tag_153:\n        /* \"#utility.yul\":7523:7527   */\n      dup3\n        /* \"#utility.yul\":7516:7621   */\n      sstore\n        /* \"#utility.yul\":7434:7627   */\n      pop\n        /* \"#utility.yul\":7358:7627   */\n      pop\n      pop\n      pop\n      jump\t// out\n        /* \"#utility.yul\":7633:7706   */\n    tag_63:\n        /* \"#utility.yul\":7678:7681   */\n      0x00\n        /* \"#utility.yul\":7699:7700   */\n      0x00\n        /* \"#utility.yul\":7692:7700   */\n      swap1\n      pop\n        /* \"#utility.yul\":7633:7706   */\n      swap1\n      jump\t// out\n        /* \"#utility.yul\":7712:7901   */\n    tag_64:\n        /* \"#utility.yul\":7789:7821   */\n      tag_157\n      tag_63\n      jump\t// in\n    tag_157:\n        /* \"#utility.yul\":7830:7895   */\n      tag_158\n        /* \"#utility.yul\":7888:7894   */\n      dup2\n        /* \"#utility.yul\":7880:7886   */\n      dup5\n        /* \"#utility.yul\":7874:7878   */\n      dup5\n        /* \"#utility.yul\":7830:7895   */\n      tag_62\n      jump\t// in\n    tag_158:\n        /* \"#utility.yul\":7765:7901   */\n      pop\n        /* \"#utility.yul\":7712:7901   */\n      pop\n      pop\n      jump\t// out\n        /* \"#utility.yul\":7907:8093   */\n    tag_65:\n        /* \"#utility.yul\":7967:8087   */\n    tag_160:\n        /* \"#utility.yul\":7984:7987   */\n      dup2\n        /* \"#utility.yul\":7977:7982   */\n      dup2\n        /* \"#utility.yul\":7974:7988   */\n      lt\n        /* \"#utility.yul\":7967:8087   */\n      iszero\n      tag_162\n      jumpi\n        /* \"#utility.yul\":8038:8077   */\n      tag_163\n        /* \"#utility.yul\":8075:8076   */\n      0x00\n        /* \"#utility.yul\":8068:8073   */\n      dup3\n        /* \"#utility.yul\":8038:8077   */\n      tag_64\n      jump\t// in\n    tag_163:\n        /* \"#utility.yul\":8011:8012   */\n      0x01\n        /* \"#utility.yul\":8004:8009   */\n      dup2\n        /* \"#utility.yul\":8000:8013   */\n      add\n        /* \"#utility.yul\":7991:8013   */\n      swap1\n      pop\n        /* \"#utility.yul\":7967:8087   */\n      jump(tag_160)\n    tag_162:\n        /* \"#utility.yul\":7907:8093   */\n      pop\n      pop\n      jump\t// out\n        /* \"#utility.yul\":8099:8642   */\n    tag_66:\n        /* \"#utility.yul\":8200:8202   */\n      0x1f\n        /* \"#utility.yul\":8195:8198   */\n      dup3\n        /* \"#utility.yul\":8192:8203   */\n      gt\n        /* \"#utility.yul\":8189:8635   */\n      iszero\n      tag_165\n      jumpi\n        /* \"#utility.yul\":8234:8272   */\n      tag_166\n        /* \"#utility.yul\":8266:8271   */\n      dup2\n        /* \"#utility.yul\":8234:8272   */\n      tag_55\n      jump\t// in\n    tag_166:\n        /* \"#utility.yul\":8318:8347   */\n      tag_167\n        /* \"#utility.yul\":8336:8346   */\n      dup5\n        /* \"#utility.yul\":8318:8347   */\n      tag_56\n      jump\t// in\n    tag_167:\n        /* \"#utility.yul\":8308:8316   */\n      dup2\n        /* \"#utility.yul\":8304:8348   */\n      add\n        /* \"#utility.yul\":8501:8503   */\n      0x20\n        /* \"#utility.yul\":8489:8499   */\n      dup6\n        /* \"#utility.yul\":8486:8504   */\n      lt\n        /* \"#utility.yul\":8483:8532   */\n      iszero\n      tag_168\n      jumpi\n        /* \"#utility.yul\":8522:8530   */\n      dup2\n        /* \"#utility.yul\":8507:8530   */\n      swap1\n      pop\n        /* \"#utility.yul\":8483:8532   */\n    tag_168:\n        /* \"#utility.yul\":8545:8625   */\n      tag_169\n        /* \"#utility.yul\":8601:8623   */\n      tag_170\n        /* \"#utility.yul\":8619:8622   */\n      dup6\n        /* \"#utility.yul\":8601:8623   */\n      tag_56\n      jump\t// in\n    tag_170:\n        /* \"#utility.yul\":8591:8599   */\n      dup4\n        /* \"#utility.yul\":8587:8624   */\n      add\n        /* \"#utility.yul\":8574:8585   */\n      dup3\n        /* \"#utility.yul\":8545:8625   */\n      tag_65\n      jump\t// in\n    tag_169:\n        /* \"#utility.yul\":8204:8635   */\n      pop\n      pop\n        /* \"#utility.yul\":8189:8635   */\n    tag_165:\n        /* \"#utility.yul\":8099:8642   */\n      pop\n      pop\n      pop\n      jump\t// out\n        /* \"#utility.yul\":8648:8765   */\n    tag_67:\n        /* \"#utility.yul\":8702:8710   */\n      0x00\n        /* \"#utility.yul\":8752:8757   */\n      dup3\n        /* \"#utility.yul\":8746:8750   */\n      dup3\n        /* \"#utility.yul\":8742:8758   */\n      shr\n        /* \"#utility.yul\":8721:8758   */\n      swap1\n      pop\n        /* \"#utility.yul\":8648:8765   */\n      swap3\n      swap2\n      pop\n      pop\n      jump\t// out\n        /* \"#utility.yul\":8771:8940   */\n    tag_68:\n        /* \"#utility.yul\":8815:8821   */\n      0x00\n        /* \"#utility.yul\":8848:8899   */\n      tag_173\n        /* \"#utility.yul\":8896:8897   */\n      0x00\n        /* \"#utility.yul\":8892:8898   */\n      not\n        /* \"#utility.yul\":8884:8889   */\n      dup5\n        /* \"#utility.yul\":8881:8882   */\n      0x08\n        /* \"#utility.yul\":8877:8890   */\n      mul\n        /* \"#utility.yul\":8848:8899   */\n      tag_67\n      jump\t// in\n    tag_173:\n        /* \"#utility.yul\":8844:8900   */\n      not\n        /* \"#utility.yul\":8929:8933   */\n      dup1\n        /* \"#utility.yul\":8923:8927   */\n      dup4\n        /* \"#utility.yul\":8919:8934   */\n      and\n        /* \"#utility.yul\":8909:8934   */\n      swap2\n      pop\n        /* \"#utility.yul\":8822:8940   */\n      pop\n        /* \"#utility.yul\":8771:8940   */\n      swap3\n      swap2\n      pop\n      pop\n      jump\t// out\n        /* \"#utility.yul\":8945:9240   */\n    tag_69:\n        /* \"#utility.yul\":9021:9025   */\n      0x00\n        /* \"#utility.yul\":9167:9196   */\n      tag_175\n        /* \"#utility.yul\":9192:9195   */\n      dup4\n        /* \"#utility.yul\":9186:9190   */\n      dup4\n        /* \"#utility.yul\":9167:9196   */\n      tag_68\n      jump\t// in\n    tag_175:\n        /* \"#utility.yul\":9159:9196   */\n      swap2\n      pop\n        /* \"#utility.yul\":9229:9232   */\n      dup3\n        /* \"#utility.yul\":9226:9227   */\n      0x02\n        /* \"#utility.yul\":9222:9233   */\n      mul\n        /* \"#utility.yul\":9216:9220   */\n      dup3\n        /* \"#utility.yul\":9213:9234   */\n      or\n        /* \"#utility.yul\":9205:9234   */\n      swap1\n      pop\n        /* \"#utility.yul\":8945:9240   */\n      swap3\n      swap2\n      pop\n      pop\n      jump\t// out\n        /* \"#utility.yul\":9245:10640   */\n    tag_31:\n        /* \"#utility.yul\":9362:9399   */\n      tag_177\n        /* \"#utility.yul\":9395:9398   */\n      dup3\n        /* \"#utility.yul\":9362:9399   */\n      tag_39\n      jump\t// in\n    tag_177:\n        /* \"#utility.yul\":9464:9482   */\n      0xffffffffffffffff\n        /* \"#utility.yul\":9456:9462   */\n      dup2\n        /* \"#utility.yul\":9453:9483   */\n      gt\n        /* \"#utility.yul\":9450:9506   */\n      iszero\n      tag_178\n      jumpi\n        /* \"#utility.yul\":9486:9504   */\n      tag_179\n      tag_47\n      jump\t// in\n    tag_179:\n        /* \"#utility.yul\":9450:9506   */\n    tag_178:\n        /* \"#utility.yul\":9530:9568   */\n      tag_180\n        /* \"#utility.yul\":9562:9566   */\n      dup3\n        /* \"#utility.yul\":9556:9567   */\n      sload\n        /* \"#utility.yul\":9530:9568   */\n      tag_18\n      jump\t// in\n    tag_180:\n        /* \"#utility.yul\":9615:9682   */\n      tag_181\n        /* \"#utility.yul\":9675:9681   */\n      dup3\n        /* \"#utility.yul\":9667:9673   */\n      dup3\n        /* \"#utility.yul\":9661:9665   */\n      dup6\n        /* \"#utility.yul\":9615:9682   */\n      tag_66\n      jump\t// in\n    tag_181:\n        /* \"#utility.yul\":9709:9710   */\n      0x00\n        /* \"#utility.yul\":9733:9737   */\n      0x20\n        /* \"#utility.yul\":9720:9737   */\n      swap1\n      pop\n        /* \"#utility.yul\":9765:9767   */\n      0x1f\n        /* \"#utility.yul\":9757:9763   */\n      dup4\n        /* \"#utility.yul\":9754:9768   */\n      gt\n        /* \"#utility.yul\":9782:9783   */\n      0x01\n        /* \"#utility.yul\":9777:10395   */\n      dup2\n      eq\n      tag_183\n      jumpi\n        /* \"#utility.yul\":10439:10440   */\n      0x00\n        /* \"#utility.yul\":10456:10462   */\n      dup5\n        /* \"#utility.yul\":10453:10530   */\n      iszero\n      tag_184\n      jumpi\n        /* \"#utility.yul\":10505:10514   */\n      dup3\n        /* \"#utility.yul\":10500:10503   */\n      dup8\n        /* \"#utility.yul\":10496:10515   */\n      add\n        /* \"#utility.yul\":10490:10516   */\n      mload\n        /* \"#utility.yul\":10481:10516   */\n      swap1\n      pop\n        /* \"#utility.yul\":10453:10530   */\n    tag_184:\n        /* \"#utility.yul\":10556:10623   */\n      tag_185\n        /* \"#utility.yul\":10616:10622   */\n      dup6\n        /* \"#utility.yul\":10609:10614   */\n      dup3\n        /* \"#utility.yul\":10556:10623   */\n      tag_69\n      jump\t// in\n    tag_185:\n        /* \"#utility.yul\":10550:10554   */\n      dup7\n        /* \"#utility.yul\":10543:10624   */\n      sstore\n        /* \"#utility.yul\":10412:10634   */\n      pop\n        /* \"#utility.yul\":9747:10634   */\n      jump(tag_182)\n        /* \"#utility.yul\":9777:10395   */\n    tag_183:\n        /* \"#utility.yul\":9829:9833   */\n      0x1f\n        /* \"#utility.yul\":9825:9834   */\n      not\n        /* \"#utility.yul\":9817:9823   */\n      dup5\n        /* \"#utility.yul\":9813:9835   */\n      and\n        /* \"#utility.yul\":9863:9900   */\n      tag_186\n        /* \"#utility.yul\":9895:9899   */\n      dup7\n        /* \"#utility.yul\":9863:9900   */\n      tag_55\n      jump\t// in\n    tag_186:\n        /* \"#utility.yul\":9922:9923   */\n      0x00\n        /* \"#utility.yul\":9936:10144   */\n    tag_187:\n        /* \"#utility.yul\":9950:9957   */\n      dup3\n        /* \"#utility.yul\":9947:9948   */\n      dup2\n        /* \"#utility.yul\":9944:9958   */\n      lt\n        /* \"#utility.yul\":9936:10144   */\n      iszero\n      tag_189\n      jumpi\n        /* \"#utility.yul\":10029:10038   */\n      dup5\n        /* \"#utility.yul\":10024:10027   */\n      dup10\n        /* \"#utility.yul\":10020:10039   */\n      add\n        /* \"#utility.yul\":10014:10040   */\n      mload\n        /* \"#utility.yul\":10006:10012   */\n      dup3\n        /* \"#utility.yul\":9999:10041   */\n      sstore\n        /* \"#utility.yul\":10080:10081   */\n      0x01\n        /* \"#utility.yul\":10072:10078   */\n      dup3\n        /* \"#utility.yul\":10068:10082   */\n      add\n        /* \"#utility.yul\":10058:10082   */\n      swap2\n      pop\n        /* \"#utility.yul\":10127:10129   */\n      0x20\n        /* \"#utility.yul\":10116:10125   */\n      dup6\n        /* \"#utility.yul\":10112:10130   */\n      add\n        /* \"#utility.yul\":10099:10130   */\n      swap5\n      pop\n        /* \"#utility.yul\":9973:9977   */\n      0x20\n        /* \"#utility.yul\":9970:9971   */\n      dup2\n        /* \"#utility.yul\":9966:9978   */\n      add\n        /* \"#utility.yul\":9961:9978   */\n      swap1\n      pop\n        /* \"#utility.yul\":9936:10144   */\n      jump(tag_187)\n    tag_189:\n        /* \"#utility.yul\":10172:10178   */\n      dup7\n        /* \"#utility.yul\":10163:10170   */\n      dup4\n        /* \"#utility.yul\":10160:10179   */\n      lt\n        /* \"#utility.yul\":10157:10336   */\n      iszero\n      tag_190\n      jumpi\n        /* \"#utility.yul\":10230:10239   */\n      dup5\n        /* \"#utility.yul\":10225:10228   */\n      dup10\n        /* \"#utility.yul\":10221:10240   */\n      add\n        /* \"#utility.yul\":10215:10241   */\n      mload\n        /* \"#utility.yul\":10273:10321   */\n      tag_191\n        /* \"#utility.yul\":10315:10319   */\n      0x1f\n        /* \"#utility.yul\":10307:10313   */\n      dup10\n        /* \"#utility.yul\":10303:10320   */\n      and\n        /* \"#utility.yul\":10292:10301   */\n      dup3\n        /* \"#utility.yul\":10273:10321   */\n      tag_68\n      jump\t// in\n    tag_191:\n        /* \"#utility.yul\":10265:10271   */\n      dup4\n        /* \"#utility.yul\":10258:10322   */\n      sstore\n        /* \"#utility.yul\":10180:10336   */\n      pop\n        /* \"#utility.yul\":10157:10336   */\n    tag_190:\n        /* \"#utility.yul\":10382:10383   */\n      0x01\n        /* \"#utility.yul\":10378:10379   */\n      0x02\n        /* \"#utility.yul\":10370:10376   */\n      dup9\n        /* \"#utility.yul\":10366:10380   */\n      mul\n        /* \"#utility.yul\":10362:10384   */\n      add\n        /* \"#utility.yul\":10356:10360   */\n      dup9\n        /* \"#utility.yul\":10349:10385   */\n      sstore\n        /* \"#utility.yul\":9784:10395   */\n      pop\n      pop\n      pop\n        /* \"#utility.yul\":9747:10634   */\n    tag_182:\n      pop\n        /* \"#utility.yul\":9337:10640   */\n      pop\n      pop\n      pop\n        /* \"#utility.yul\":9245:10640   */\n      pop\n      pop\n      jump\t// out\n\n    auxdata: 0xa2646970667358221220ea618c06432db9de45790a54a62eddfcc68c3628abff00ba1442da5a23ee632c64736f6c634300081e0033\n}\n",
				"bytecode": {
					"linkReferences": {},
					"object": "6080604052348015600e575f5ffd5b5061082f8061001c5f395ff3fe608060405234801561000f575f5ffd5b5060043610610034575f3560e01c80639c874fda14610038578063e8a126eb1461006a575b5f5ffd5b610052600480360381019061004d919061028c565b610086565b60405161006193929190610336565b60405180910390f35b610084600480360381019061007f91906104a5565b6101c6565b005b5f8181548110610094575f80fd5b905f5260205f2090600302015f91509050805f0180546100b39061055a565b80601f01602080910402602001604051908101604052809291908181526020018280546100df9061055a565b801561012a5780601f106101015761010080835404028352916020019161012a565b820191905f5260205f20905b81548152906001019060200180831161010d57829003601f168201915b5050505050908060010154908060020180546101459061055a565b80601f01602080910402602001604051908101604052809291908181526020018280546101719061055a565b80156101bc5780601f10610193576101008083540402835291602001916101bc565b820191905f5260205f20905b81548152906001019060200180831161019f57829003601f168201915b5050505050905083565b5f60405180606001604052808581526020018481526020018381525090505f81908060018154018082558091505060019003905f5260205f2090600302015f909190919091505f820151815f01908161021f919061072a565b5060208201518160010155604082015181600201908161023f919061072a565b50505050505050565b5f604051905090565b5f5ffd5b5f5ffd5b5f819050919050565b61026b81610259565b8114610275575f5ffd5b50565b5f8135905061028681610262565b92915050565b5f602082840312156102a1576102a0610251565b5b5f6102ae84828501610278565b91505092915050565b5f81519050919050565b5f82825260208201905092915050565b8281835e5f83830152505050565b5f601f19601f8301169050919050565b5f6102f9826102b7565b61030381856102c1565b93506103138185602086016102d1565b61031c816102df565b840191505092915050565b61033081610259565b82525050565b5f6060820190508181035f83015261034e81866102ef565b905061035d6020830185610327565b818103604083015261036f81846102ef565b9050949350505050565b5f5ffd5b5f5ffd5b7f4e487b71000000000000000000000000000000000000000000000000000000005f52604160045260245ffd5b6103b7826102df565b810181811067ffffffffffffffff821117156103d6576103d5610381565b5b80604052505050565b5f6103e8610248565b90506103f482826103ae565b919050565b5f67ffffffffffffffff82111561041357610412610381565b5b61041c826102df565b9050602081019050919050565b828183375f83830152505050565b5f610449610444846103f9565b6103df565b9050828152602081018484840111156104655761046461037d565b5b610470848285610429565b509392505050565b5f82601f83011261048c5761048b610379565b5b813561049c848260208601610437565b91505092915050565b5f5f5f606084860312156104bc576104bb610251565b5b5f84013567ffffffffffffffff8111156104d9576104d8610255565b5b6104e586828701610478565b93505060206104f686828701610278565b925050604084013567ffffffffffffffff81111561051757610516610255565b5b61052386828701610478565b9150509250925092565b7f4e487b71000000000000000000000000000000000000000000000000000000005f52602260045260245ffd5b5f600282049050600182168061057157607f821691505b6020821081036105845761058361052d565b5b50919050565b5f819050815f5260205f209050919050565b5f6020601f8301049050919050565b5f82821b905092915050565b5f600883026105e67fffffffffffffffffffffffffffffffffffffffffffffffffffffffffffffffff826105ab565b6105f086836105ab565b95508019841693508086168417925050509392505050565b5f819050919050565b5f61062b61062661062184610259565b610608565b610259565b9050919050565b5f819050919050565b61064483610611565b61065861065082610632565b8484546105b7565b825550505050565b5f5f905090565b61066f610660565b61067a81848461063b565b505050565b5b8181101561069d576106925f82610667565b600181019050610680565b5050565b601f8211156106e2576106b38161058a565b6106bc8461059c565b810160208510156106cb578190505b6106df6106d78561059c565b83018261067f565b50505b505050565b5f82821c905092915050565b5f6107025f19846008026106e7565b1980831691505092915050565b5f61071a83836106f3565b9150826002028217905092915050565b610733826102b7565b67ffffffffffffffff81111561074c5761074b610381565b5b610756825461055a565b6107618282856106a1565b5f60209050601f831160018114610792575f8415610780578287015190505b61078a858261070f565b8655506107f1565b601f1984166107a08661058a565b5f5b828110156107c7578489015182556001820191506020850194506020810190506107a2565b868310156107e457848901516107e0601f8916826106f3565b8355505b6001600288020188555050505b50505050505056fea2646970667358221220ea618c06432db9de45790a54a62eddfcc68c3628abff00ba1442da5a23ee632c64736f6c634300081e0033",
					"opcodes": "PUSH1 0x80 PUSH1 0x40 MSTORE CALLVALUE DUP1 ISZERO PUSH1 0xE JUMPI PUSH0 PUSH0 REVERT JUMPDEST POP PUSH2 0x82F DUP1 PUSH2 0x1C PUSH0 CODECOPY PUSH0 RETURN INVALID PUSH1 0x80 PUSH1 0x40 MSTORE CALLVALUE DUP1 ISZERO PUSH2 0xF JUMPI PUSH0 PUSH0 REVERT JUMPDEST POP PUSH1 0x4 CALLDATASIZE LT PUSH2 0x34 JUMPI PUSH0 CALLDATALOAD PUSH1 0xE0 SHR DUP1 PUSH4 0x9C874FDA EQ PUSH2 0x38 JUMPI DUP1 PUSH4 0xE8A126EB EQ PUSH2 0x6A JUMPI JUMPDEST PUSH0 PUSH0 REVERT JUMPDEST PUSH2 0x52 PUSH1 0x4 DUP1 CALLDATASIZE SUB DUP2 ADD SWAP1 PUSH2 0x4D SWAP2 SWAP1 PUSH2 0x28C JUMP JUMPDEST PUSH2 0x86 JUMP JUMPDEST PUSH1 0x40 MLOAD PUSH2 0x61 SWAP4 SWAP3 SWAP2 SWAP1 PUSH2 0x336 JUMP JUMPDEST PUSH1 0x40 MLOAD DUP1 SWAP2 SUB SWAP1 RETURN JUMPDEST PUSH2 0x84 PUSH1 0x4 DUP1 CALLDATASIZE SUB DUP2 ADD SWAP1 PUSH2 0x7F SWAP2 SWAP1 PUSH2 0x4A5 JUMP JUMPDEST PUSH2 0x1C6 JUMP JUMPDEST STOP JUMPDEST PUSH0 DUP2 DUP2 SLOAD DUP2 LT PUSH2 0x94 JUMPI PUSH0 DUP1 REVERT JUMPDEST SWAP1 PUSH0 MSTORE PUSH1 0x20 PUSH0 KECCAK256 SWAP1 PUSH1 0x3 MUL ADD PUSH0 SWAP2 POP SWAP1 POP DUP1 PUSH0 ADD DUP1 SLOAD PUSH2 0xB3 SWAP1 PUSH2 0x55A JUMP JUMPDEST DUP1 PUSH1 0x1F ADD PUSH1 0x20 DUP1 SWAP2 DIV MUL PUSH1 0x20 ADD PUSH1 0x40 MLOAD SWAP1 DUP2 ADD PUSH1 0x40 MSTORE DUP1 SWAP3 SWAP2 SWAP1 DUP2 DUP2 MSTORE PUSH1 0x20 ADD DUP3 DUP1 SLOAD PUSH2 0xDF SWAP1 PUSH2 0x55A JUMP JUMPDEST DUP1 ISZERO PUSH2 0x12A JUMPI DUP1 PUSH1 0x1F LT PUSH2 0x101 JUMPI PUSH2 0x100 DUP1 DUP4 SLOAD DIV MUL DUP4 MSTORE SWAP2 PUSH1 0x20 ADD SWAP2 PUSH2 0x12A JUMP JUMPDEST DUP3 ADD SWAP2 SWAP1 PUSH0 MSTORE PUSH1 0x20 PUSH0 KECCAK256 SWAP1 JUMPDEST DUP2 SLOAD DUP2 MSTORE SWAP1 PUSH1 0x1 ADD SWAP1 PUSH1 0x20 ADD DUP1 DUP4 GT PUSH2 0x10D JUMPI DUP3 SWAP1 SUB PUSH1 0x1F AND DUP3 ADD SWAP2 JUMPDEST POP POP POP POP POP SWAP1 DUP1 PUSH1 0x1 ADD SLOAD SWAP1 DUP1 PUSH1 0x2 ADD DUP1 SLOAD PUSH2 0x145 SWAP1 PUSH2 0x55A JUMP JUMPDEST DUP1 PUSH1 0x1F ADD PUSH1 0x20 DUP1 SWAP2 DIV MUL PUSH1 0x20 ADD PUSH1 0x40 MLOAD SWAP1 DUP2 ADD PUSH1 0x40 MSTORE DUP1 SWAP3 SWAP2 SWAP1 DUP2 DUP2 MSTORE PUSH1 0x20 ADD DUP3 DUP1 SLOAD PUSH2 0x171 SWAP1 PUSH2 0x55A JUMP JUMPDEST DUP1 ISZERO PUSH2 0x1BC JUMPI DUP1 PUSH1 0x1F LT PUSH2 0x193 JUMPI PUSH2 0x100 DUP1 DUP4 SLOAD DIV MUL DUP4 MSTORE SWAP2 PUSH1 0x20 ADD SWAP2 PUSH2 0x1BC JUMP JUMPDEST DUP3 ADD SWAP2 SWAP1 PUSH0 MSTORE PUSH1 0x20 PUSH0 KECCAK256 SWAP1 JUMPDEST DUP2 SLOAD DUP2 MSTORE SWAP1 PUSH1 0x1 ADD SWAP1 PUSH1 0x20 ADD DUP1 DUP4 GT PUSH2 0x19F JUMPI DUP3 SWAP1 SUB PUSH1 0x1F AND DUP3 ADD SWAP2 JUMPDEST POP POP POP POP POP SWAP1 POP DUP4 JUMP JUMPDEST PUSH0 PUSH1 0x40 MLOAD DUP1 PUSH1 0x60 ADD PUSH1 0x40 MSTORE DUP1 DUP6 DUP2 MSTORE PUSH1 0x20 ADD DUP5 DUP2 MSTORE PUSH1 0x20 ADD DUP4 DUP2 MSTORE POP SWAP1 POP PUSH0 DUP2 SWAP1 DUP1 PUSH1 0x1 DUP2 SLOAD ADD DUP1 DUP3 SSTORE DUP1 SWAP2 POP POP PUSH1 0x1 SWAP1 SUB SWAP1 PUSH0 MSTORE PUSH1 0x20 PUSH0 KECCAK256 SWAP1 PUSH1 0x3 MUL ADD PUSH0 SWAP1 SWAP2 SWAP1 SWAP2 SWAP1 SWAP2 POP PUSH0 DUP3 ADD MLOAD DUP2 PUSH0 ADD SWAP1 DUP2 PUSH2 0x21F SWAP2 SWAP1 PUSH2 0x72A JUMP JUMPDEST POP PUSH1 0x20 DUP3 ADD MLOAD DUP2 PUSH1 0x1 ADD SSTORE PUSH1 0x40 DUP3 ADD MLOAD DUP2 PUSH1 0x2 ADD SWAP1 DUP2 PUSH2 0x23F SWAP2 SWAP1 PUSH2 0x72A JUMP JUMPDEST POP POP POP POP POP POP POP JUMP JUMPDEST PUSH0 PUSH1 0x40 MLOAD SWAP1 POP SWAP1 JUMP JUMPDEST PUSH0 PUSH0 REVERT JUMPDEST PUSH0 PUSH0 REVERT JUMPDEST PUSH0 DUP2 SWAP1 POP SWAP2 SWAP1 POP JUMP JUMPDEST PUSH2 0x26B DUP2 PUSH2 0x259 JUMP JUMPDEST DUP2 EQ PUSH2 0x275 JUMPI PUSH0 PUSH0 REVERT JUMPDEST POP JUMP JUMPDEST PUSH0 DUP2 CALLDATALOAD SWAP1 POP PUSH2 0x286 DUP2 PUSH2 0x262 JUMP JUMPDEST SWAP3 SWAP2 POP POP JUMP JUMPDEST PUSH0 PUSH1 0x20 DUP3 DUP5 SUB SLT ISZERO PUSH2 0x2A1 JUMPI PUSH2 0x2A0 PUSH2 0x251 JUMP JUMPDEST JUMPDEST PUSH0 PUSH2 0x2AE DUP5 DUP3 DUP6 ADD PUSH2 0x278 JUMP JUMPDEST SWAP2 POP POP SWAP3 SWAP2 POP POP JUMP JUMPDEST PUSH0 DUP2 MLOAD SWAP1 POP SWAP2 SWAP1 POP JUMP JUMPDEST PUSH0 DUP3 DUP3 MSTORE PUSH1 0x20 DUP3 ADD SWAP1 POP SWAP3 SWAP2 POP POP JUMP JUMPDEST DUP3 DUP2 DUP4 MCOPY PUSH0 DUP4 DUP4 ADD MSTORE POP POP POP JUMP JUMPDEST PUSH0 PUSH1 0x1F NOT PUSH1 0x1F DUP4 ADD AND SWAP1 POP SWAP2 SWAP1 POP JUMP JUMPDEST PUSH0 PUSH2 0x2F9 DUP3 PUSH2 0x2B7 JUMP JUMPDEST PUSH2 0x303 DUP2 DUP6 PUSH2 0x2C1 JUMP JUMPDEST SWAP4 POP PUSH2 0x313 DUP2 DUP6 PUSH1 0x20 DUP7 ADD PUSH2 0x2D1 JUMP JUMPDEST PUSH2 0x31C DUP2 PUSH2 0x2DF JUMP JUMPDEST DUP5 ADD SWAP2 POP POP SWAP3 SWAP2 POP POP JUMP JUMPDEST PUSH2 0x330 DUP2 PUSH2 0x259 JUMP JUMPDEST DUP3 MSTORE POP POP JUMP JUMPDEST PUSH0 PUSH1 0x60 DUP3 ADD SWAP1 POP DUP2 DUP2 SUB PUSH0 DUP4 ADD MSTORE PUSH2 0x34E DUP2 DUP7 PUSH2 0x2EF JUMP JUMPDEST SWAP1 POP PUSH2 0x35D PUSH1 0x20 DUP4 ADD DUP6 PUSH2 0x327 JUMP JUMPDEST DUP2 DUP2 SUB PUSH1 0x40 DUP4 ADD MSTORE PUSH2 0x36F DUP2 DUP5 PUSH2 0x2EF JUMP JUMPDEST SWAP1 POP SWAP5 SWAP4 POP POP POP POP JUMP JUMPDEST PUSH0 PUSH0 REVERT JUMPDEST PUSH0 PUSH0 REVERT JUMPDEST PUSH32 0x4E487B7100000000000000000000000000000000000000000000000000000000 PUSH0 MSTORE PUSH1 0x41 PUSH1 0x4 MSTORE PUSH1 0x24 PUSH0 REVERT JUMPDEST PUSH2 0x3B7 DUP3 PUSH2 0x2DF JUMP JUMPDEST DUP2 ADD DUP2 DUP2 LT PUSH8 0xFFFFFFFFFFFFFFFF DUP3 GT OR ISZERO PUSH2 0x3D6 JUMPI PUSH2 0x3D5 PUSH2 0x381 JUMP JUMPDEST JUMPDEST DUP1 PUSH1 0x40 MSTORE POP POP POP JUMP JUMPDEST PUSH0 PUSH2 0x3E8 PUSH2 0x248 JUMP JUMPDEST SWAP1 POP PUSH2 0x3F4 DUP3 DUP3 PUSH2 0x3AE JUMP JUMPDEST SWAP2 SWAP1 POP JUMP JUMPDEST PUSH0 PUSH8 0xFFFFFFFFFFFFFFFF DUP3 GT ISZERO PUSH2 0x413 JUMPI PUSH2 0x412 PUSH2 0x381 JUMP JUMPDEST JUMPDEST PUSH2 0x41C DUP3 PUSH2 0x2DF JUMP JUMPDEST SWAP1 POP PUSH1 0x20 DUP2 ADD SWAP1 POP SWAP2 SWAP1 POP JUMP JUMPDEST DUP3 DUP2 DUP4 CALLDATACOPY PUSH0 DUP4 DUP4 ADD MSTORE POP POP POP JUMP JUMPDEST PUSH0 PUSH2 0x449 PUSH2 0x444 DUP5 PUSH2 0x3F9 JUMP JUMPDEST PUSH2 0x3DF JUMP JUMPDEST SWAP1 POP DUP3 DUP2 MSTORE PUSH1 0x20 DUP2 ADD DUP5 DUP5 DUP5 ADD GT ISZERO PUSH2 0x465 JUMPI PUSH2 0x464 PUSH2 0x37D JUMP JUMPDEST JUMPDEST PUSH2 0x470 DUP5 DUP3 DUP6 PUSH2 0x429 JUMP JUMPDEST POP SWAP4 SWAP3 POP POP POP JUMP JUMPDEST PUSH0 DUP3 PUSH1 0x1F DUP4 ADD SLT PUSH2 0x48C JUMPI PUSH2 0x48B PUSH2 0x379 JUMP JUMPDEST JUMPDEST DUP2 CALLDATALOAD PUSH2 0x49C DUP5 DUP3 PUSH1 0x20 DUP7 ADD PUSH2 0x437 JUMP JUMPDEST SWAP2 POP POP SWAP3 SWAP2 POP POP JUMP JUMPDEST PUSH0 PUSH0 PUSH0 PUSH1 0x60 DUP5 DUP7 SUB SLT ISZERO PUSH2 0x4BC JUMPI PUSH2 0x4BB PUSH2 0x251 JUMP JUMPDEST JUMPDEST PUSH0 DUP5 ADD CALLDATALOAD PUSH8 0xFFFFFFFFFFFFFFFF DUP2 GT ISZERO PUSH2 0x4D9 JUMPI PUSH2 0x4D8 PUSH2 0x255 JUMP JUMPDEST JUMPDEST PUSH2 0x4E5 DUP7 DUP3 DUP8 ADD PUSH2 0x478 JUMP JUMPDEST SWAP4 POP POP PUSH1 0x20 PUSH2 0x4F6 DUP7 DUP3 DUP8 ADD PUSH2 0x278 JUMP JUMPDEST SWAP3 POP POP PUSH1 0x40 DUP5 ADD CALLDATALOAD PUSH8 0xFFFFFFFFFFFFFFFF DUP2 GT ISZERO PUSH2 0x517 JUMPI PUSH2 0x516 PUSH2 0x255 JUMP JUMPDEST JUMPDEST PUSH2 0x523 DUP7 DUP3 DUP8 ADD PUSH2 0x478 JUMP JUMPDEST SWAP2 POP POP SWAP3 POP SWAP3 POP SWAP3 JUMP JUMPDEST PUSH32 0x4E487B7100000000000000000000000000000000000000000000000000000000 PUSH0 MSTORE PUSH1 0x22 PUSH1 0x4 MSTORE PUSH1 0x24 PUSH0 REVERT JUMPDEST PUSH0 PUSH1 0x2 DUP3 DIV SWAP1 POP PUSH1 0x1 DUP3 AND DUP1 PUSH2 0x571 JUMPI PUSH1 0x7F DUP3 AND SWAP2 POP JUMPDEST PUSH1 0x20 DUP3 LT DUP2 SUB PUSH2 0x584 JUMPI PUSH2 0x583 PUSH2 0x52D JUMP JUMPDEST JUMPDEST POP SWAP2 SWAP1 POP JUMP JUMPDEST PUSH0 DUP2 SWAP1 POP DUP2 PUSH0 MSTORE PUSH1 0x20 PUSH0 KECCAK256 SWAP1 POP SWAP2 SWAP1 POP JUMP JUMPDEST PUSH0 PUSH1 0x20 PUSH1 0x1F DUP4 ADD DIV SWAP1 POP SWAP2 SWAP1 POP JUMP JUMPDEST PUSH0 DUP3 DUP3 SHL SWAP1 POP SWAP3 SWAP2 POP POP JUMP JUMPDEST PUSH0 PUSH1 0x8 DUP4 MUL PUSH2 0x5E6 PUSH32 0xFFFFFFFFFFFFFFFFFFFFFFFFFFFFFFFFFFFFFFFFFFFFFFFFFFFFFFFFFFFFFFFF DUP3 PUSH2 0x5AB JUMP JUMPDEST PUSH2 0x5F0 DUP7 DUP4 PUSH2 0x5AB JUMP JUMPDEST SWAP6 POP DUP1 NOT DUP5 AND SWAP4 POP DUP1 DUP7 AND DUP5 OR SWAP3 POP POP POP SWAP4 SWAP3 POP POP POP JUMP JUMPDEST PUSH0 DUP2 SWAP1 POP SWAP2 SWAP1 POP JUMP JUMPDEST PUSH0 PUSH2 0x62B PUSH2 0x626 PUSH2 0x621 DUP5 PUSH2 0x259 JUMP JUMPDEST PUSH2 0x608 JUMP JUMPDEST PUSH2 0x259 JUMP JUMPDEST SWAP1 POP SWAP2 SWAP1 POP JUMP JUMPDEST PUSH0 DUP2 SWAP1 POP SWAP2 SWAP1 POP JUMP JUMPDEST PUSH2 0x644 DUP4 PUSH2 0x611 JUMP JUMPDEST PUSH2 0x658 PUSH2 0x650 DUP3 PUSH2 0x632 JUMP JUMPDEST DUP5 DUP5 SLOAD PUSH2 0x5B7 JUMP JUMPDEST DUP3 SSTORE POP POP POP POP JUMP JUMPDEST PUSH0 PUSH0 SWAP1 POP SWAP1 JUMP JUMPDEST PUSH2 0x66F PUSH2 0x660 JUMP JUMPDEST PUSH2 0x67A DUP2 DUP5 DUP5 PUSH2 0x63B JUMP JUMPDEST POP POP POP JUMP JUMPDEST JUMPDEST DUP2 DUP2 LT ISZERO PUSH2 0x69D JUMPI PUSH2 0x692 PUSH0 DUP3 PUSH2 0x667 JUMP JUMPDEST PUSH1 0x1 DUP2 ADD SWAP1 POP PUSH2 0x680 JUMP JUMPDEST POP POP JUMP JUMPDEST PUSH1 0x1F DUP3 GT ISZERO PUSH2 0x6E2 JUMPI PUSH2 0x6B3 DUP2 PUSH2 0x58A JUMP JUMPDEST PUSH2 0x6BC DUP5 PUSH2 0x59C JUMP JUMPDEST DUP2 ADD PUSH1 0x20 DUP6 LT ISZERO PUSH2 0x6CB JUMPI DUP2 SWAP1 POP JUMPDEST PUSH2 0x6DF PUSH2 0x6D7 DUP6 PUSH2 0x59C JUMP JUMPDEST DUP4 ADD DUP3 PUSH2 0x67F JUMP JUMPDEST POP POP JUMPDEST POP POP POP JUMP JUMPDEST PUSH0 DUP3 DUP3 SHR SWAP1 POP SWAP3 SWAP2 POP POP JUMP JUMPDEST PUSH0 PUSH2 0x702 PUSH0 NOT DUP5 PUSH1 0x8 MUL PUSH2 0x6E7 JUMP JUMPDEST NOT DUP1 DUP4 AND SWAP2 POP POP SWAP3 SWAP2 POP POP JUMP JUMPDEST PUSH0 PUSH2 0x71A DUP4 DUP4 PUSH2 0x6F3 JUMP JUMPDEST SWAP2 POP DUP3 PUSH1 0x2 MUL DUP3 OR SWAP1 POP SWAP3 SWAP2 POP POP JUMP JUMPDEST PUSH2 0x733 DUP3 PUSH2 0x2B7 JUMP JUMPDEST PUSH8 0xFFFFFFFFFFFFFFFF DUP2 GT ISZERO PUSH2 0x74C JUMPI PUSH2 0x74B PUSH2 0x381 JUMP JUMPDEST JUMPDEST PUSH2 0x756 DUP3 SLOAD PUSH2 0x55A JUMP JUMPDEST PUSH2 0x761 DUP3 DUP3 DUP6 PUSH2 0x6A1 JUMP JUMPDEST PUSH0 PUSH1 0x20 SWAP1 POP PUSH1 0x1F DUP4 GT PUSH1 0x1 DUP2 EQ PUSH2 0x792 JUMPI PUSH0 DUP5 ISZERO PUSH2 0x780 JUMPI DUP3 DUP8 ADD MLOAD SWAP1 POP JUMPDEST PUSH2 0x78A DUP6 DUP3 PUSH2 0x70F JUMP JUMPDEST DUP7 SSTORE POP PUSH2 0x7F1 JUMP JUMPDEST PUSH1 0x1F NOT DUP5 AND PUSH2 0x7A0 DUP7 PUSH2 0x58A JUMP JUMPDEST PUSH0 JUMPDEST DUP3 DUP2 LT ISZERO PUSH2 0x7C7 JUMPI DUP5 DUP10 ADD MLOAD DUP3 SSTORE PUSH1 0x1 DUP3 ADD SWAP2 POP PUSH1 0x20 DUP6 ADD SWAP5 POP PUSH1 0x20 DUP2 ADD SWAP1 POP PUSH2 0x7A2 JUMP JUMPDEST DUP7 DUP4 LT ISZERO PUSH2 0x7E4 JUMPI DUP5 DUP10 ADD MLOAD PUSH2 0x7E0 PUSH1 0x1F DUP10 AND DUP3 PUSH2 0x6F3 JUMP JUMPDEST DUP4 SSTORE POP JUMPDEST PUSH1 0x1 PUSH1 0x2 DUP9 MUL ADD DUP9 SSTORE POP POP POP JUMPDEST POP POP POP POP POP POP JUMP INVALID LOG2 PUSH5 0x6970667358 0x22 SLT KECCAK256 0xEA PUSH2 0x8C06 NUMBER 0x2D 0xB9 0xDE GASLIMIT PUSH26 0xA54A62EDDFCC68C3628ABFF00BA1442DA5A23EE632C64736F6C PUSH4 0x4300081E STOP CALLER "
				},
				"gasEstimates": {
					"creation": {
						"codeDepositCost": "419000",
						"executionCost": "453",
						"totalCost": "419453"
					},
					"external": {
						"addTesla(string,uint256,string)": "infinite",
						"teslas(uint256)": "infinite"
					}
				},
				"methodIdentifiers": {
					"addTesla(string,uint256,string)": "e8a126eb",
					"teslas(uint256)": "9c874fda"
				}
			},
			"storageLayout": {
				"storage": [
					{
						"astId": 12,
						"contract": "contracts/artifacts/Tesla.sol:Tesla",
						"label": "teslas",
						"offset": 0,
						"slot": "0",
						"type": "t_array(t_struct(Tesla)8_storage)dyn_storage"
					}
				],
				"types": {
					"t_array(t_struct(Tesla)8_storage)dyn_storage": {
						"base": "t_struct(Tesla)8_storage",
						"encoding": "dynamic_array",
						"label": "struct Tesla.Tesla[]",
						"numberOfBytes": "32"
					},
					"t_string_storage": {
						"encoding": "bytes",
						"label": "string",
						"numberOfBytes": "32"
					},
					"t_struct(Tesla)8_storage": {
						"encoding": "inplace",
						"label": "struct Tesla.Tesla",
						"members": [
							{
								"astId": 3,
								"contract": "contracts/artifacts/Tesla.sol:Tesla",
								"label": "name",
								"offset": 0,
								"slot": "0",
								"type": "t_string_storage"
							},
							{
								"astId": 5,
								"contract": "contracts/artifacts/Tesla.sol:Tesla",
								"label": "year",
								"offset": 0,
								"slot": "1",
								"type": "t_uint256"
							},
							{
								"astId": 7,
								"contract": "contracts/artifacts/Tesla.sol:Tesla",
								"label": "color",
								"offset": 0,
								"slot": "2",
								"type": "t_string_storage"
							}
						],
						"numberOfBytes": "96"
					},
					"t_uint256": {
						"encoding": "inplace",
						"label": "uint256",
						"numberOfBytes": "32"
					}
				}
			},
			"userdoc": {
				"kind": "user",
				"methods": {},
				"version": 1
			}
		}
	}
}